:0400000080313728EC
:100008007E1480314E01161E0A280B2812280C1E59
:100018000E280F2812288431232480310B1F15281D
:10002800162835284E01971D1A281B2826288D1DAD
:100038001E281F282628400153088A0052080A0053
:1000480080313528171E29282A2835280D1E2D28E5
:100058002E283528400151088A0050080A008031AE
:1000680035287E10090080313928F801F901FA0194
:1000780020308400003085003730843113248031EB
:10008800A030840000308500203084311324803172
:100098007E10400183315B2B4001E6005F0886003B
:1000A8008701403FE100413FE200610884006208A7
:1000B80085001200253A031D62286328A8285F08D6
:1000C800860087010130810741310318810AC20186
:1000D800C301C601C701FF30C400FF30C5005F0877
:1000E80086008701403FE100413FE200610884004B
:1000F800620885001200253A031D832884289D285C
:100108005F08860087010130810741310318810AA1
:100118002530D7000030D8006608E1006108D90012
:100128008131C521803101304001DF000030E0001D
:10013800CB285F0886008701013081074131031809
:10014800810ADF01E001CB285F0886008701403F74
:10015800E100413FE2006108840062088500000870
:10016800E300E4016308D7006408D8006608E500E6
:100178006508D9008131C521803140015F088600BA
:1001880087010130810741310318810A9728080047
:100198007935203E860087010030C03FC13F4201CB
:1001A8009D1CD728D828E9287935203E8600870164
:1001B80001154001480849040319E328E428E928FF
:1001C80049088A0048080A00803142011D1DED28AF
:1001D800EE28FF287935203E8600870181144001EA
:1001E8004A084B040319F928FA28FF284B088A0003
:1001F8004A080A00803142011908F0007008F1002D
:100208007908013E0739F0007008F2007208780694
:10021800031D0F291029112922297208F0007008DE
:10022800F9007108F0007208303E860087017008F6
:1002380081000130F00070084001D40708008431C3
:1002480002248131003A03192A292B29782982317D
:10025800AC228131F60076084001D70031305706CC
:10026800031D372938297829D8015808C73E840042
:1002780083300318013E850000089A005808D13ED3
:10028800840083300318013E850000089B00063077
:10029800F7001330F600AE30890B5029F60B5029C1
:1002A800F70B5029031040011C1D031403185D2986
:1002B800602940011C15622940011C110130F6001B
:1002C8007608D8070A305802031C6B296C2939298B
:1002D800C73084008330850000089A00D13084003C
:1002E8008330850000089B000800400198019901AF
:1002F8009A019B019C01FF309200FE3093008730E9
:100308009400C93095000B309600FF307E01B8008C
:10031800FC30C3008730CE00C930D9000330E40078
:10032800B901C401CF01DA01E501BA01C501D00163
:10033800DB01E601FF30BB00FF30C600FF30D10013
:10034800FF30DC000730E700FF30BC00FF30C7009B
:10035800FF30D200FF30DD000F30E80009307D01AA
:10036800CB0005307E019800BD01BE01BF01C80168
:10037800C901CA01D301D401D501E901EA01EB01A0
:100388000800400159080319CA29CB29D02959085E
:10039800031DCF29D029D529570883316E238131F0
:1003A800072A5908083E8600870116000104031928
:1003B800DE29DF29FD295908083E86008701403FCC
:1003C800DA00413FDB005908023E86008701403FC2
:1003D800DC00413FDD005D08803ADE005B08803AC2
:1003E8005E02031DF9295A085C020318FC29FD293D
:1003F800072A40015908023E86008701013081071B
:1004080041310318810A0800C034F934A434B034E7
:10041800993492348234F834803490340A3409346C
:100428002034453455345334413452345434203410
:1004380049342F344F3420344534583450344134FF
:100448004E344434453452342034453458344134DD
:100458004D3450344C34453420342D342034433416
:100468004C34493445344E345434203444344534BF
:10047800563449344334453420340D340A340A346C
:1004880000344E011712CC30F3000030F4008331F1
:10049800982382314E0197112530F3000330F40080
:1004A80083318C238231483042019F0090309D0077
:1004B80026309E00CF309B009C012430F30004308E
:1004C800F4008331B02382311F30F3000430F4008C
:1004D8008331A42382314001CC01CD01D601D5015D
:1004E8000830F5007508FA00F901F801D4014E0149
:1004F800171608004534023400340034AC34023492
:10050800FD340234023404340B340434003400342F
:100518000034003400340034003400340034003433
:100528000034003400340034003400340034003423
:10053800003400348C3403349834033400340034E9
:10054800B0340334A43403340034003400340034A9
:100558007808013E0739F3007308F4007408F300C3
:100568007308F8007835203E86008701403F400137
:10057800CC00413FCD007808303E86008701010855
:10058800F3007308F5004E011712400154080319CF
:10059800CE2ACF2AD12A0130D4024E011716750867
:1005A80008004001EC006808EE006708ED00C00193
:1005B800C101EF2A6D30EA006A08DF006908EB0024
:1005C8006B08E0006C0880315020823140015F08E0
:1005D800C0076008C13D6D0884006E0885001200E0
:1005E800031DF72AF82ADE2A4108E8004008E70038
:1005F80008004E019719012B022B062B73084201A4
:100608009A00222B7A0803190A2B0B2B222B400164
:100618005608013E0739F4007408F5007308F40021
:100628007508383E86008701740881007508F40053
:100638007408D6004E0197110130FA024E01971541
:10064800080008307A0203182A2B2B2B422B400172
:100658005508013E0739F0007008F1007108F000F4
:100668007008D5007108383E8600870101084201EC
:100678009A000130F0007008FA07442B4E019711D8
:100688000800C2304001EF006F084101C200410874
:100698004001E800410140084001E700C230EF0096
:1006A8006F08E90000308231D52283310800833198
:1006B8007F2383318B170B1712304101C000823022
:1006C800C100833145238331813123218331682B54
:1006D80080313728F70084310B248331003A03191D
:1006E800762B772B6F2B7708F6007608F30082318C
:1006F800FD22833108008331F92383318131792147
:1007080083318231452283318331BC238331080010
:10071800730874040319912B922B972B74084001CA
:10072800D3007308D20008007308740403199D2BC2
:100738009E2BA32B74084001D1007308D000080039
:10074800730874040319A92BAA2BAF2B7408400152
:10075800C9007308C8000800730874040319B52B8E
:10076800B62BBB2B74084001CB007308CA000800E5
:100778004E010C100B140030F3000030F4008431EB
:1007880019248331080020343834103418340834DC
:100798000834003438340034083400342234103437
:1007A8000034223404340434203400340034C03497
:1007B800F934A434B034993492348234F83480341F
:1007C8009034203438341034183408340834003461
:1007D80038340034083400342234103400342234DD
:1007E8000434043420340034003451018E01403084
:1007F80091000330930090019201080040015408D1
:10080800031D072C092C01300A2C003008007A0837
:10081800031D0F2C112C0130122C0030080064002D
:1008280080010131890B142C003474084001CF0079
:100838007308CE00080042011D121D1608000800AA
:020848000800A6
:020000040001F9
:08000000FF3FFF3FFF3FFF3F00
:0A000E00CD3FE73FFF3FFF3FFF3FFC
:00000001FF
